{
  "_format": "hh-sol-artifact-1",
  "contractName": "BlockNotice",
  "sourceName": "contracts/BlockNotice.sol",
  "abi": [
    {
      "anonymous": false,
      "inputs": [
        {
          "indexed": true,
          "internalType": "uint256",
          "name": "noticeId",
          "type": "uint256"
        },
        {
          "indexed": true,
          "internalType": "address",
          "name": "author",
          "type": "address"
        },
        {
          "indexed": false,
          "internalType": "string",
          "name": "title",
          "type": "string"
        },
        {
          "indexed": false,
          "internalType": "string",
          "name": "ipfsHash",
          "type": "string"
        },
        {
          "indexed": false,
          "internalType": "uint256",
          "name": "timestamp",
          "type": "uint256"
        }
      ],
      "name": "NoticeIssued",
      "type": "event"
    },
    {
      "inputs": [
        {
          "internalType": "uint256",
          "name": "_id",
          "type": "uint256"
        }
      ],
      "name": "getNotice",
      "outputs": [
        {
          "components": [
            {
              "internalType": "uint256",
              "name": "id",
              "type": "uint256"
            },
            {
              "internalType": "address",
              "name": "author",
              "type": "address"
            },
            {
              "internalType": "string",
              "name": "title",
              "type": "string"
            },
            {
              "internalType": "string",
              "name": "ipfsHash",
              "type": "string"
            },
            {
              "internalType": "uint256",
              "name": "timestamp",
              "type": "uint256"
            }
          ],
          "internalType": "struct BlockNotice.Notice",
          "name": "",
          "type": "tuple"
        }
      ],
      "stateMutability": "view",
      "type": "function"
    },
    {
      "inputs": [],
      "name": "getNoticeCount",
      "outputs": [
        {
          "internalType": "uint256",
          "name": "",
          "type": "uint256"
        }
      ],
      "stateMutability": "view",
      "type": "function"
    },
    {
      "inputs": [
        {
          "internalType": "address",
          "name": "_user",
          "type": "address"
        }
      ],
      "name": "getUserNotices",
      "outputs": [
        {
          "internalType": "uint256[]",
          "name": "",
          "type": "uint256[]"
        }
      ],
      "stateMutability": "view",
      "type": "function"
    },
    {
      "inputs": [
        {
          "internalType": "string",
          "name": "_ipfsHash",
          "type": "string"
        },
        {
          "internalType": "string",
          "name": "_title",
          "type": "string"
        }
      ],
      "name": "issueNotice",
      "outputs": [],
      "stateMutability": "nonpayable",
      "type": "function"
    },
    {
      "inputs": [
        {
          "internalType": "uint256",
          "name": "",
          "type": "uint256"
        }
      ],
      "name": "notices",
      "outputs": [
        {
          "internalType": "uint256",
          "name": "id",
          "type": "uint256"
        },
        {
          "internalType": "address",
          "name": "author",
          "type": "address"
        },
        {
          "internalType": "string",
          "name": "title",
          "type": "string"
        },
        {
          "internalType": "string",
          "name": "ipfsHash",
          "type": "string"
        },
        {
          "internalType": "uint256",
          "name": "timestamp",
          "type": "uint256"
        }
      ],
      "stateMutability": "view",
      "type": "function"
    },
    {
      "inputs": [
        {
          "internalType": "address",
          "name": "",
          "type": "address"
        },
        {
          "internalType": "uint256",
          "name": "",
          "type": "uint256"
        }
      ],
      "name": "userNotices",
      "outputs": [
        {
          "internalType": "uint256",
          "name": "",
          "type": "uint256"
        }
      ],
      "stateMutability": "view",
      "type": "function"
    }
  ],
  "bytecode": "0x608060405234801561001057600080fd5b506111a2806100206000396000f3fe608060405234801561001057600080fd5b50600436106100625760003560e01c80635becfac71461006757806366319b4e146100975780637cbc1373146100c757806394da4d01146100f757806395d50a7f1461012b578063e45cb40114610149575b600080fd5b610081600480360381019061007c9190610807565b610165565b60405161008e9190610991565b60405180910390f35b6100b160048036038101906100ac91906109df565b610376565b6040516100be9190610abb565b60405180910390f35b6100e160048036038101906100dc9190610add565b61040d565b6040516100ee9190610b2c565b60405180910390f35b610111600480360381019061010c9190610807565b61043e565b604051610122959493929190610ba0565b60405180910390f35b6101336105b4565b6040516101409190610b2c565b60405180910390f35b610163600480360381019061015e9190610d36565b6105c0565b005b61016d610778565b60008054905082106101b4576040517f08c379a00000000000000000000000000000000000000000000000000000000081526004016101ab90610dfa565b60405180910390fd5b600082815481106101c8576101c7610e1a565b5b90600052602060002090600502016040518060a0016040529081600082015481526020016001820160009054906101000a900473ffffffffffffffffffffffffffffffffffffffff1673ffffffffffffffffffffffffffffffffffffffff1673ffffffffffffffffffffffffffffffffffffffff16815260200160028201805461025190610e78565b80601f016020809104026020016040519081016040528092919081815260200182805461027d90610e78565b80156102ca5780601f1061029f576101008083540402835291602001916102ca565b820191906000526020600020905b8154815290600101906020018083116102ad57829003601f168201915b505050505081526020016003820180546102e390610e78565b80601f016020809104026020016040519081016040528092919081815260200182805461030f90610e78565b801561035c5780601f106103315761010080835404028352916020019161035c565b820191906000526020600020905b81548152906001019060200180831161033f57829003601f168201915b505050505081526020016004820154815250509050919050565b6060600160008373ffffffffffffffffffffffffffffffffffffffff1673ffffffffffffffffffffffffffffffffffffffff16815260200190815260200160002080548060200260200160405190810160405280929190818152602001828054801561040157602002820191906000526020600020905b8154815260200190600101908083116103ed575b50505050509050919050565b6001602052816000526040600020818154811061042957600080fd5b90600052602060002001600091509150505481565b6000818154811061044e57600080fd5b90600052602060002090600502016000915090508060000154908060010160009054906101000a900473ffffffffffffffffffffffffffffffffffffffff169080600201805461049d90610e78565b80601f01602080910402602001604051908101604052809291908181526020018280546104c990610e78565b80156105165780601f106104eb57610100808354040283529160200191610516565b820191906000526020600020905b8154815290600101906020018083116104f957829003601f168201915b50505050509080600301805461052b90610e78565b80601f016020809104026020016040519081016040528092919081815260200182805461055790610e78565b80156105a45780601f10610579576101008083540402835291602001916105a4565b820191906000526020600020905b81548152906001019060200180831161058757829003601f168201915b5050505050908060040154905085565b60008080549050905090565b60008080549050905060006040518060a001604052808381526020013373ffffffffffffffffffffffffffffffffffffffff1681526020018481526020018581526020014281525090806001815401808255809150506001900390600052602060002090600502016000909190919091506000820151816000015560208201518160010160006101000a81548173ffffffffffffffffffffffffffffffffffffffff021916908373ffffffffffffffffffffffffffffffffffffffff16021790555060408201518160020190816106979190611055565b5060608201518160030190816106ad9190611055565b50608082015181600401555050600160003373ffffffffffffffffffffffffffffffffffffffff1673ffffffffffffffffffffffffffffffffffffffff1681526020019081526020016000208190806001815401808255809150506001900390600052602060002001600090919091909150553373ffffffffffffffffffffffffffffffffffffffff16817f729a1782c56456702f346adbe9dcfc4d7d088db53505e1560c110b6618c9998384864260405161076b93929190611127565b60405180910390a3505050565b6040518060a0016040528060008152602001600073ffffffffffffffffffffffffffffffffffffffff1681526020016060815260200160608152602001600081525090565b6000604051905090565b600080fd5b600080fd5b6000819050919050565b6107e4816107d1565b81146107ef57600080fd5b50565b600081359050610801816107db565b92915050565b60006020828403121561081d5761081c6107c7565b5b600061082b848285016107f2565b91505092915050565b61083d816107d1565b82525050565b600073ffffffffffffffffffffffffffffffffffffffff82169050919050565b600061086e82610843565b9050919050565b61087e81610863565b82525050565b600081519050919050565b600082825260208201905092915050565b60005b838110156108be5780820151818401526020810190506108a3565b60008484015250505050565b6000601f19601f8301169050919050565b60006108e682610884565b6108f0818561088f565b93506109008185602086016108a0565b610909816108ca565b840191505092915050565b600060a08301600083015161092c6000860182610834565b50602083015161093f6020860182610875565b506040830151848203604086015261095782826108db565b9150506060830151848203606086015261097182826108db565b91505060808301516109866080860182610834565b508091505092915050565b600060208201905081810360008301526109ab8184610914565b905092915050565b6109bc81610863565b81146109c757600080fd5b50565b6000813590506109d9816109b3565b92915050565b6000602082840312156109f5576109f46107c7565b5b6000610a03848285016109ca565b91505092915050565b600081519050919050565b600082825260208201905092915050565b6000819050602082019050919050565b6000610a448383610834565b60208301905092915050565b6000602082019050919050565b6000610a6882610a0c565b610a728185610a17565b9350610a7d83610a28565b8060005b83811015610aae578151610a958882610a38565b9750610aa083610a50565b925050600181019050610a81565b5085935050505092915050565b60006020820190508181036000830152610ad58184610a5d565b905092915050565b60008060408385031215610af457610af36107c7565b5b6000610b02858286016109ca565b9250506020610b13858286016107f2565b9150509250929050565b610b26816107d1565b82525050565b6000602082019050610b416000830184610b1d565b92915050565b610b5081610863565b82525050565b600082825260208201905092915050565b6000610b7282610884565b610b7c8185610b56565b9350610b8c8185602086016108a0565b610b95816108ca565b840191505092915050565b600060a082019050610bb56000830188610b1d565b610bc26020830187610b47565b8181036040830152610bd48186610b67565b90508181036060830152610be88185610b67565b9050610bf76080830184610b1d565b9695505050505050565b600080fd5b600080fd5b7f4e487b7100000000000000000000000000000000000000000000000000000000600052604160045260246000fd5b610c43826108ca565b810181811067ffffffffffffffff82111715610c6257610c61610c0b565b5b80604052505050565b6000610c756107bd565b9050610c818282610c3a565b919050565b600067ffffffffffffffff821115610ca157610ca0610c0b565b5b610caa826108ca565b9050602081019050919050565b82818337600083830152505050565b6000610cd9610cd484610c86565b610c6b565b905082815260208101848484011115610cf557610cf4610c06565b5b610d00848285610cb7565b509392505050565b600082601f830112610d1d57610d1c610c01565b5b8135610d2d848260208601610cc6565b91505092915050565b60008060408385031215610d4d57610d4c6107c7565b5b600083013567ffffffffffffffff811115610d6b57610d6a6107cc565b5b610d7785828601610d08565b925050602083013567ffffffffffffffff811115610d9857610d976107cc565b5b610da485828601610d08565b9150509250929050565b7f4e6f7469636520646f6573206e6f742065786973740000000000000000000000600082015250565b6000610de4601583610b56565b9150610def82610dae565b602082019050919050565b60006020820190508181036000830152610e1381610dd7565b9050919050565b7f4e487b7100000000000000000000000000000000000000000000000000000000600052603260045260246000fd5b7f4e487b7100000000000000000000000000000000000000000000000000000000600052602260045260246000fd5b60006002820490506001821680610e9057607f821691505b602082108103610ea357610ea2610e49565b5b50919050565b60008190508160005260206000209050919050565b60006020601f8301049050919050565b600082821b905092915050565b600060088302610f0b7fffffffffffffffffffffffffffffffffffffffffffffffffffffffffffffffff82610ece565b610f158683610ece565b95508019841693508086168417925050509392505050565b6000819050919050565b6000610f52610f4d610f48846107d1565b610f2d565b6107d1565b9050919050565b6000819050919050565b610f6c83610f37565b610f80610f7882610f59565b848454610edb565b825550505050565b600090565b610f95610f88565b610fa0818484610f63565b505050565b5b81811015610fc457610fb9600082610f8d565b600181019050610fa6565b5050565b601f82111561100957610fda81610ea9565b610fe384610ebe565b81016020851015610ff2578190505b611006610ffe85610ebe565b830182610fa5565b50505b505050565b600082821c905092915050565b600061102c6000198460080261100e565b1980831691505092915050565b6000611045838361101b565b9150826002028217905092915050565b61105e82610884565b67ffffffffffffffff81111561107757611076610c0b565b5b6110818254610e78565b61108c828285610fc8565b600060209050601f8311600181146110bf57600084156110ad578287015190505b6110b78582611039565b86555061111f565b601f1984166110cd86610ea9565b60005b828110156110f5578489015182556001820191506020850194506020810190506110d0565b86831015611112578489015161110e601f89168261101b565b8355505b6001600288020188555050505b505050505050565b600060608201905081810360008301526111418186610b67565b905081810360208301526111558185610b67565b90506111646040830184610b1d565b94935050505056fea2646970667358221220a90e5a9b66bacf52a0326d16d4d1fd500bdd381a87e01bbfe11504a273c790c864736f6c63430008130033",
  "linkReferences": {},
  "deployedLinkReferences": {}
}