{
  "_format": "hh-sol-artifact-1",
  "contractName": "BlockNotice",
  "sourceName": "contracts/BlockNotice.sol",
  "abi": [
    {
      "anonymous": false,
      "inputs": [
        {
          "indexed": true,
          "internalType": "uint256",
          "name": "noticeId",
          "type": "uint256"
        },
        {
          "indexed": true,
          "internalType": "address",
          "name": "author",
          "type": "address"
        },
        {
          "indexed": false,
          "internalType": "string",
          "name": "title",
          "type": "string"
        },
        {
          "indexed": false,
          "internalType": "uint256",
          "name": "timestamp",
          "type": "uint256"
        }
      ],
      "name": "NoticePosted",
      "type": "event"
    },
    {
      "inputs": [
        {
          "internalType": "uint256",
          "name": "_id",
          "type": "uint256"
        }
      ],
      "name": "getNotice",
      "outputs": [
        {
          "components": [
            {
              "internalType": "uint256",
              "name": "id",
              "type": "uint256"
            },
            {
              "internalType": "address",
              "name": "author",
              "type": "address"
            },
            {
              "internalType": "string",
              "name": "title",
              "type": "string"
            },
            {
              "internalType": "string",
              "name": "content",
              "type": "string"
            },
            {
              "internalType": "uint256",
              "name": "timestamp",
              "type": "uint256"
            }
          ],
          "internalType": "struct BlockNotice.Notice",
          "name": "",
          "type": "tuple"
        }
      ],
      "stateMutability": "view",
      "type": "function"
    },
    {
      "inputs": [],
      "name": "getNoticeCount",
      "outputs": [
        {
          "internalType": "uint256",
          "name": "",
          "type": "uint256"
        }
      ],
      "stateMutability": "view",
      "type": "function"
    },
    {
      "inputs": [
        {
          "internalType": "address",
          "name": "_user",
          "type": "address"
        }
      ],
      "name": "getUserNotices",
      "outputs": [
        {
          "internalType": "uint256[]",
          "name": "",
          "type": "uint256[]"
        }
      ],
      "stateMutability": "view",
      "type": "function"
    },
    {
      "inputs": [
        {
          "internalType": "uint256",
          "name": "",
          "type": "uint256"
        }
      ],
      "name": "notices",
      "outputs": [
        {
          "internalType": "uint256",
          "name": "id",
          "type": "uint256"
        },
        {
          "internalType": "address",
          "name": "author",
          "type": "address"
        },
        {
          "internalType": "string",
          "name": "title",
          "type": "string"
        },
        {
          "internalType": "string",
          "name": "content",
          "type": "string"
        },
        {
          "internalType": "uint256",
          "name": "timestamp",
          "type": "uint256"
        }
      ],
      "stateMutability": "view",
      "type": "function"
    },
    {
      "inputs": [
        {
          "internalType": "string",
          "name": "_title",
          "type": "string"
        },
        {
          "internalType": "string",
          "name": "_content",
          "type": "string"
        }
      ],
      "name": "postNotice",
      "outputs": [],
      "stateMutability": "nonpayable",
      "type": "function"
    },
    {
      "inputs": [
        {
          "internalType": "address",
          "name": "",
          "type": "address"
        },
        {
          "internalType": "uint256",
          "name": "",
          "type": "uint256"
        }
      ],
      "name": "userNotices",
      "outputs": [
        {
          "internalType": "uint256",
          "name": "",
          "type": "uint256"
        }
      ],
      "stateMutability": "view",
      "type": "function"
    }
  ],
  "bytecode": "0x608060405234801561001057600080fd5b5061118b806100206000396000f3fe608060405234801561001057600080fd5b50600436106100625760003560e01c80635becfac71461006757806366319b4e146100975780637cbc1373146100c757806394da4d01146100f757806395d50a7f1461012b57806397fbe20714610149575b600080fd5b610081600480360381019061007c9190610805565b610165565b60405161008e919061098f565b60405180910390f35b6100b160048036038101906100ac91906109dd565b610376565b6040516100be9190610ab9565b60405180910390f35b6100e160048036038101906100dc9190610adb565b61040d565b6040516100ee9190610b2a565b60405180910390f35b610111600480360381019061010c9190610805565b61043e565b604051610122959493929190610b9e565b60405180910390f35b6101336105b4565b6040516101409190610b2a565b60405180910390f35b610163600480360381019061015e9190610d34565b6105c0565b005b61016d610776565b60008054905082106101b4576040517f08c379a00000000000000000000000000000000000000000000000000000000081526004016101ab90610df8565b60405180910390fd5b600082815481106101c8576101c7610e18565b5b90600052602060002090600502016040518060a0016040529081600082015481526020016001820160009054906101000a900473ffffffffffffffffffffffffffffffffffffffff1673ffffffffffffffffffffffffffffffffffffffff1673ffffffffffffffffffffffffffffffffffffffff16815260200160028201805461025190610e76565b80601f016020809104026020016040519081016040528092919081815260200182805461027d90610e76565b80156102ca5780601f1061029f576101008083540402835291602001916102ca565b820191906000526020600020905b8154815290600101906020018083116102ad57829003601f168201915b505050505081526020016003820180546102e390610e76565b80601f016020809104026020016040519081016040528092919081815260200182805461030f90610e76565b801561035c5780601f106103315761010080835404028352916020019161035c565b820191906000526020600020905b81548152906001019060200180831161033f57829003601f168201915b505050505081526020016004820154815250509050919050565b6060600160008373ffffffffffffffffffffffffffffffffffffffff1673ffffffffffffffffffffffffffffffffffffffff16815260200190815260200160002080548060200260200160405190810160405280929190818152602001828054801561040157602002820191906000526020600020905b8154815260200190600101908083116103ed575b50505050509050919050565b6001602052816000526040600020818154811061042957600080fd5b90600052602060002001600091509150505481565b6000818154811061044e57600080fd5b90600052602060002090600502016000915090508060000154908060010160009054906101000a900473ffffffffffffffffffffffffffffffffffffffff169080600201805461049d90610e76565b80601f01602080910402602001604051908101604052809291908181526020018280546104c990610e76565b80156105165780601f106104eb57610100808354040283529160200191610516565b820191906000526020600020905b8154815290600101906020018083116104f957829003601f168201915b50505050509080600301805461052b90610e76565b80601f016020809104026020016040519081016040528092919081815260200182805461055790610e76565b80156105a45780601f10610579576101008083540402835291602001916105a4565b820191906000526020600020905b81548152906001019060200180831161058757829003601f168201915b5050505050908060040154905085565b60008080549050905090565b60008080549050905060006040518060a001604052808381526020013373ffffffffffffffffffffffffffffffffffffffff1681526020018581526020018481526020014281525090806001815401808255809150506001900390600052602060002090600502016000909190919091506000820151816000015560208201518160010160006101000a81548173ffffffffffffffffffffffffffffffffffffffff021916908373ffffffffffffffffffffffffffffffffffffffff16021790555060408201518160020190816106979190611053565b5060608201518160030190816106ad9190611053565b50608082015181600401555050600160003373ffffffffffffffffffffffffffffffffffffffff1673ffffffffffffffffffffffffffffffffffffffff1681526020019081526020016000208190806001815401808255809150506001900390600052602060002001600090919091909150553373ffffffffffffffffffffffffffffffffffffffff16817fd22678d020b0e477324136d7f30db58b29803d020fbb6fa912e28a0a513900bc8542604051610769929190611125565b60405180910390a3505050565b6040518060a0016040528060008152602001600073ffffffffffffffffffffffffffffffffffffffff1681526020016060815260200160608152602001600081525090565b6000604051905090565b600080fd5b600080fd5b6000819050919050565b6107e2816107cf565b81146107ed57600080fd5b50565b6000813590506107ff816107d9565b92915050565b60006020828403121561081b5761081a6107c5565b5b6000610829848285016107f0565b91505092915050565b61083b816107cf565b82525050565b600073ffffffffffffffffffffffffffffffffffffffff82169050919050565b600061086c82610841565b9050919050565b61087c81610861565b82525050565b600081519050919050565b600082825260208201905092915050565b60005b838110156108bc5780820151818401526020810190506108a1565b60008484015250505050565b6000601f19601f8301169050919050565b60006108e482610882565b6108ee818561088d565b93506108fe81856020860161089e565b610907816108c8565b840191505092915050565b600060a08301600083015161092a6000860182610832565b50602083015161093d6020860182610873565b506040830151848203604086015261095582826108d9565b9150506060830151848203606086015261096f82826108d9565b91505060808301516109846080860182610832565b508091505092915050565b600060208201905081810360008301526109a98184610912565b905092915050565b6109ba81610861565b81146109c557600080fd5b50565b6000813590506109d7816109b1565b92915050565b6000602082840312156109f3576109f26107c5565b5b6000610a01848285016109c8565b91505092915050565b600081519050919050565b600082825260208201905092915050565b6000819050602082019050919050565b6000610a428383610832565b60208301905092915050565b6000602082019050919050565b6000610a6682610a0a565b610a708185610a15565b9350610a7b83610a26565b8060005b83811015610aac578151610a938882610a36565b9750610a9e83610a4e565b925050600181019050610a7f565b5085935050505092915050565b60006020820190508181036000830152610ad38184610a5b565b905092915050565b60008060408385031215610af257610af16107c5565b5b6000610b00858286016109c8565b9250506020610b11858286016107f0565b9150509250929050565b610b24816107cf565b82525050565b6000602082019050610b3f6000830184610b1b565b92915050565b610b4e81610861565b82525050565b600082825260208201905092915050565b6000610b7082610882565b610b7a8185610b54565b9350610b8a81856020860161089e565b610b93816108c8565b840191505092915050565b600060a082019050610bb36000830188610b1b565b610bc06020830187610b45565b8181036040830152610bd28186610b65565b90508181036060830152610be68185610b65565b9050610bf56080830184610b1b565b9695505050505050565b600080fd5b600080fd5b7f4e487b7100000000000000000000000000000000000000000000000000000000600052604160045260246000fd5b610c41826108c8565b810181811067ffffffffffffffff82111715610c6057610c5f610c09565b5b80604052505050565b6000610c736107bb565b9050610c7f8282610c38565b919050565b600067ffffffffffffffff821115610c9f57610c9e610c09565b5b610ca8826108c8565b9050602081019050919050565b82818337600083830152505050565b6000610cd7610cd284610c84565b610c69565b905082815260208101848484011115610cf357610cf2610c04565b5b610cfe848285610cb5565b509392505050565b600082601f830112610d1b57610d1a610bff565b5b8135610d2b848260208601610cc4565b91505092915050565b60008060408385031215610d4b57610d4a6107c5565b5b600083013567ffffffffffffffff811115610d6957610d686107ca565b5b610d7585828601610d06565b925050602083013567ffffffffffffffff811115610d9657610d956107ca565b5b610da285828601610d06565b9150509250929050565b7f4e6f7469636520646f6573206e6f742065786973740000000000000000000000600082015250565b6000610de2601583610b54565b9150610ded82610dac565b602082019050919050565b60006020820190508181036000830152610e1181610dd5565b9050919050565b7f4e487b7100000000000000000000000000000000000000000000000000000000600052603260045260246000fd5b7f4e487b7100000000000000000000000000000000000000000000000000000000600052602260045260246000fd5b60006002820490506001821680610e8e57607f821691505b602082108103610ea157610ea0610e47565b5b50919050565b60008190508160005260206000209050919050565b60006020601f8301049050919050565b600082821b905092915050565b600060088302610f097fffffffffffffffffffffffffffffffffffffffffffffffffffffffffffffffff82610ecc565b610f138683610ecc565b95508019841693508086168417925050509392505050565b6000819050919050565b6000610f50610f4b610f46846107cf565b610f2b565b6107cf565b9050919050565b6000819050919050565b610f6a83610f35565b610f7e610f7682610f57565b848454610ed9565b825550505050565b600090565b610f93610f86565b610f9e818484610f61565b505050565b5b81811015610fc257610fb7600082610f8b565b600181019050610fa4565b5050565b601f82111561100757610fd881610ea7565b610fe184610ebc565b81016020851015610ff0578190505b611004610ffc85610ebc565b830182610fa3565b50505b505050565b600082821c905092915050565b600061102a6000198460080261100c565b1980831691505092915050565b60006110438383611019565b9150826002028217905092915050565b61105c82610882565b67ffffffffffffffff81111561107557611074610c09565b5b61107f8254610e76565b61108a828285610fc6565b600060209050601f8311600181146110bd57600084156110ab578287015190505b6110b58582611037565b86555061111d565b601f1984166110cb86610ea7565b60005b828110156110f3578489015182556001820191506020850194506020810190506110ce565b86831015611110578489015161110c601f891682611019565b8355505b6001600288020188555050505b505050505050565b6000604082019050818103600083015261113f8185610b65565b905061114e6020830184610b1b565b939250505056fea2646970667358221220d720b11866878939d0b48f29c32527150a315cdccc4e74a19256df32ce61b54f64736f6c63430008130033",
  "linkReferences": {},
  "deployedLinkReferences": {}
}