{
  "_format": "hh-sol-artifact-1",
  "contractName": "BlockNotice",
  "sourceName": "contracts/BlockNotice.sol",
  "abi": [
    {
      "inputs": [
        {
          "internalType": "address[]",
          "name": "_admins",
          "type": "address[]"
        },
        {
          "internalType": "uint256",
          "name": "_confirmationsRequired",
          "type": "uint256"
        }
      ],
      "stateMutability": "nonpayable",
      "type": "constructor"
    },
    {
      "anonymous": false,
      "inputs": [
        {
          "indexed": true,
          "internalType": "uint256",
          "name": "noticeId",
          "type": "uint256"
        },
        {
          "indexed": true,
          "internalType": "address",
          "name": "author",
          "type": "address"
        },
        {
          "indexed": false,
          "internalType": "string",
          "name": "title",
          "type": "string"
        },
        {
          "indexed": false,
          "internalType": "uint256",
          "name": "timestamp",
          "type": "uint256"
        }
      ],
      "name": "NoticePosted",
      "type": "event"
    },
    {
      "anonymous": false,
      "inputs": [
        {
          "indexed": true,
          "internalType": "uint256",
          "name": "proposalId",
          "type": "uint256"
        },
        {
          "indexed": true,
          "internalType": "address",
          "name": "approver",
          "type": "address"
        }
      ],
      "name": "ProposalConfirmed",
      "type": "event"
    },
    {
      "anonymous": false,
      "inputs": [
        {
          "indexed": true,
          "internalType": "uint256",
          "name": "proposalId",
          "type": "uint256"
        },
        {
          "indexed": true,
          "internalType": "address",
          "name": "executor",
          "type": "address"
        }
      ],
      "name": "ProposalExecuted",
      "type": "event"
    },
    {
      "anonymous": false,
      "inputs": [
        {
          "indexed": true,
          "internalType": "uint256",
          "name": "proposalId",
          "type": "uint256"
        },
        {
          "indexed": true,
          "internalType": "address",
          "name": "author",
          "type": "address"
        },
        {
          "indexed": false,
          "internalType": "string",
          "name": "title",
          "type": "string"
        }
      ],
      "name": "ProposalSubmitted",
      "type": "event"
    },
    {
      "inputs": [
        {
          "internalType": "uint256",
          "name": "",
          "type": "uint256"
        }
      ],
      "name": "admins",
      "outputs": [
        {
          "internalType": "address",
          "name": "",
          "type": "address"
        }
      ],
      "stateMutability": "view",
      "type": "function"
    },
    {
      "inputs": [
        {
          "internalType": "uint256",
          "name": "_proposalId",
          "type": "uint256"
        }
      ],
      "name": "confirmNotice",
      "outputs": [],
      "stateMutability": "nonpayable",
      "type": "function"
    },
    {
      "inputs": [],
      "name": "confirmationsRequired",
      "outputs": [
        {
          "internalType": "uint256",
          "name": "",
          "type": "uint256"
        }
      ],
      "stateMutability": "view",
      "type": "function"
    },
    {
      "inputs": [
        {
          "internalType": "uint256",
          "name": "_proposalId",
          "type": "uint256"
        }
      ],
      "name": "executeNotice",
      "outputs": [],
      "stateMutability": "nonpayable",
      "type": "function"
    },
    {
      "inputs": [
        {
          "internalType": "uint256",
          "name": "_id",
          "type": "uint256"
        }
      ],
      "name": "getNotice",
      "outputs": [
        {
          "components": [
            {
              "internalType": "uint256",
              "name": "id",
              "type": "uint256"
            },
            {
              "internalType": "address",
              "name": "author",
              "type": "address"
            },
            {
              "internalType": "string",
              "name": "title",
              "type": "string"
            },
            {
              "internalType": "string",
              "name": "content",
              "type": "string"
            },
            {
              "internalType": "uint256",
              "name": "timestamp",
              "type": "uint256"
            }
          ],
          "internalType": "struct BlockNotice.Notice",
          "name": "",
          "type": "tuple"
        }
      ],
      "stateMutability": "view",
      "type": "function"
    },
    {
      "inputs": [],
      "name": "getNoticeCount",
      "outputs": [
        {
          "internalType": "uint256",
          "name": "",
          "type": "uint256"
        }
      ],
      "stateMutability": "view",
      "type": "function"
    },
    {
      "inputs": [],
      "name": "getProposals",
      "outputs": [
        {
          "components": [
            {
              "internalType": "uint256",
              "name": "id",
              "type": "uint256"
            },
            {
              "internalType": "address",
              "name": "author",
              "type": "address"
            },
            {
              "internalType": "string",
              "name": "title",
              "type": "string"
            },
            {
              "internalType": "string",
              "name": "content",
              "type": "string"
            },
            {
              "internalType": "uint256",
              "name": "approvalCount",
              "type": "uint256"
            },
            {
              "internalType": "bool",
              "name": "executed",
              "type": "bool"
            },
            {
              "internalType": "uint256",
              "name": "timestamp",
              "type": "uint256"
            }
          ],
          "internalType": "struct BlockNotice.Proposal[]",
          "name": "",
          "type": "tuple[]"
        }
      ],
      "stateMutability": "view",
      "type": "function"
    },
    {
      "inputs": [
        {
          "internalType": "address",
          "name": "_user",
          "type": "address"
        }
      ],
      "name": "getUserNotices",
      "outputs": [
        {
          "internalType": "uint256[]",
          "name": "",
          "type": "uint256[]"
        }
      ],
      "stateMutability": "view",
      "type": "function"
    },
    {
      "inputs": [
        {
          "internalType": "address",
          "name": "",
          "type": "address"
        }
      ],
      "name": "isAdmin",
      "outputs": [
        {
          "internalType": "bool",
          "name": "",
          "type": "bool"
        }
      ],
      "stateMutability": "view",
      "type": "function"
    },
    {
      "inputs": [
        {
          "internalType": "uint256",
          "name": "",
          "type": "uint256"
        },
        {
          "internalType": "address",
          "name": "",
          "type": "address"
        }
      ],
      "name": "isConfirmed",
      "outputs": [
        {
          "internalType": "bool",
          "name": "",
          "type": "bool"
        }
      ],
      "stateMutability": "view",
      "type": "function"
    },
    {
      "inputs": [
        {
          "internalType": "uint256",
          "name": "",
          "type": "uint256"
        }
      ],
      "name": "notices",
      "outputs": [
        {
          "internalType": "uint256",
          "name": "id",
          "type": "uint256"
        },
        {
          "internalType": "address",
          "name": "author",
          "type": "address"
        },
        {
          "internalType": "string",
          "name": "title",
          "type": "string"
        },
        {
          "internalType": "string",
          "name": "content",
          "type": "string"
        },
        {
          "internalType": "uint256",
          "name": "timestamp",
          "type": "uint256"
        }
      ],
      "stateMutability": "view",
      "type": "function"
    },
    {
      "inputs": [
        {
          "internalType": "uint256",
          "name": "",
          "type": "uint256"
        }
      ],
      "name": "proposals",
      "outputs": [
        {
          "internalType": "uint256",
          "name": "id",
          "type": "uint256"
        },
        {
          "internalType": "address",
          "name": "author",
          "type": "address"
        },
        {
          "internalType": "string",
          "name": "title",
          "type": "string"
        },
        {
          "internalType": "string",
          "name": "content",
          "type": "string"
        },
        {
          "internalType": "uint256",
          "name": "approvalCount",
          "type": "uint256"
        },
        {
          "internalType": "bool",
          "name": "executed",
          "type": "bool"
        },
        {
          "internalType": "uint256",
          "name": "timestamp",
          "type": "uint256"
        }
      ],
      "stateMutability": "view",
      "type": "function"
    },
    {
      "inputs": [
        {
          "internalType": "string",
          "name": "_title",
          "type": "string"
        },
        {
          "internalType": "string",
          "name": "_content",
          "type": "string"
        }
      ],
      "name": "submitNotice",
      "outputs": [],
      "stateMutability": "nonpayable",
      "type": "function"
    },
    {
      "inputs": [
        {
          "internalType": "address",
          "name": "",
          "type": "address"
        },
        {
          "internalType": "uint256",
          "name": "",
          "type": "uint256"
        }
      ],
      "name": "userNotices",
      "outputs": [
        {
          "internalType": "uint256",
          "name": "",
          "type": "uint256"
        }
      ],
      "stateMutability": "view",
      "type": "function"
    }
  ],
  "bytecode": "0x60806040523480156200001157600080fd5b5060405162002d9838038062002d9883398181016040528101906200003791906200050d565b60008251116200007e576040517f08c379a00000000000000000000000000000000000000000000000000000000081526004016200007590620005d4565b60405180910390fd5b60008111801562000090575081518111155b620000d2576040517f08c379a0000000000000000000000000000000000000000000000000000000008152600401620000c9906200066c565b60405180910390fd5b60005b8251811015620002d4576000838281518110620000f757620000f66200068e565b5b60200260200101519050600073ffffffffffffffffffffffffffffffffffffffff168173ffffffffffffffffffffffffffffffffffffffff160362000173576040517f08c379a00000000000000000000000000000000000000000000000000000000081526004016200016a906200070d565b60405180910390fd5b600160008273ffffffffffffffffffffffffffffffffffffffff1673ffffffffffffffffffffffffffffffffffffffff16815260200190815260200160002060009054906101000a900460ff161562000203576040517f08c379a0000000000000000000000000000000000000000000000000000000008152600401620001fa906200077f565b60405180910390fd5b60018060008373ffffffffffffffffffffffffffffffffffffffff1673ffffffffffffffffffffffffffffffffffffffff16815260200190815260200160002060006101000a81548160ff0219169083151502179055506000819080600181540180825580915050600190039060005260206000200160009091909190916101000a81548173ffffffffffffffffffffffffffffffffffffffff021916908373ffffffffffffffffffffffffffffffffffffffff160217905550508080620002cb90620007d0565b915050620000d5565b508060028190555050506200081d565b6000604051905090565b600080fd5b600080fd5b600080fd5b6000601f19601f8301169050919050565b7f4e487b7100000000000000000000000000000000000000000000000000000000600052604160045260246000fd5b6200034882620002fd565b810181811067ffffffffffffffff821117156200036a57620003696200030e565b5b80604052505050565b60006200037f620002e4565b90506200038d82826200033d565b919050565b600067ffffffffffffffff821115620003b057620003af6200030e565b5b602082029050602081019050919050565b600080fd5b600073ffffffffffffffffffffffffffffffffffffffff82169050919050565b6000620003f382620003c6565b9050919050565b6200040581620003e6565b81146200041157600080fd5b50565b6000815190506200042581620003fa565b92915050565b6000620004426200043c8462000392565b62000373565b90508083825260208201905060208402830185811115620004685762000467620003c1565b5b835b8181101562000495578062000480888262000414565b8452602084019350506020810190506200046a565b5050509392505050565b600082601f830112620004b757620004b6620002f8565b5b8151620004c98482602086016200042b565b91505092915050565b6000819050919050565b620004e781620004d2565b8114620004f357600080fd5b50565b6000815190506200050781620004dc565b92915050565b60008060408385031215620005275762000526620002ee565b5b600083015167ffffffffffffffff811115620005485762000547620002f3565b5b62000556858286016200049f565b92505060206200056985828601620004f6565b9150509250929050565b600082825260208201905092915050565b7f41646d696e732072657175697265640000000000000000000000000000000000600082015250565b6000620005bc600f8362000573565b9150620005c98262000584565b602082019050919050565b60006020820190508181036000830152620005ef81620005ad565b9050919050565b7f496e76616c6964206e756d626572206f6620726571756972656420636f6e666960008201527f726d6174696f6e73000000000000000000000000000000000000000000000000602082015250565b60006200065460288362000573565b91506200066182620005f6565b604082019050919050565b60006020820190508181036000830152620006878162000645565b9050919050565b7f4e487b7100000000000000000000000000000000000000000000000000000000600052603260045260246000fd5b7f496e76616c69642061646d696e00000000000000000000000000000000000000600082015250565b6000620006f5600d8362000573565b91506200070282620006bd565b602082019050919050565b600060208201905081810360008301526200072881620006e6565b9050919050565b7f41646d696e206e6f7420756e6971756500000000000000000000000000000000600082015250565b60006200076760108362000573565b915062000774826200072f565b602082019050919050565b600060208201905081810360008301526200079a8162000758565b9050919050565b7f4e487b7100000000000000000000000000000000000000000000000000000000600052601160045260246000fd5b6000620007dd82620004d2565b91507fffffffffffffffffffffffffffffffffffffffffffffffffffffffffffffffff8203620008125762000811620007a1565b5b600182019050919050565b61256b806200082d6000396000f3fe608060405234801561001057600080fd5b50600436106100ea5760003560e01c806366319b4e1161008c5780638bbe2e3c116100665780638bbe2e3c1461029b57806394da4d01146102b757806395d50a7f146102eb578063e8b2c24314610309576100ea565b806366319b4e1461020b5780637cbc13731461023b57806380f59a651461026b576100ea565b80631770ba72116100c85780631770ba721461017157806324d7806c1461018d5780635becfac7146101bd57806362564c48146101ed576100ea565b8063013cf08b146100ef57806314bfd6d014610125578063171b464714610155575b600080fd5b6101096004803603810190610104919061161c565b610327565b60405161011c9796959493929190611744565b60405180910390f35b61013f600480360381019061013a919061161c565b6104b6565b60405161014c91906117c1565b60405180910390f35b61016f600480360381019061016a919061161c565b6104f5565b005b61018b60048036038101906101869190611911565b6107e9565b005b6101a760048036038101906101a291906119b5565b6109fe565b6040516101b491906119e2565b60405180910390f35b6101d760048036038101906101d2919061161c565b610a1e565b6040516101e49190611ae2565b60405180910390f35b6101f5610c2f565b6040516102029190611c78565b60405180910390f35b610225600480360381019061022091906119b5565b610e41565b6040516102329190611d49565b60405180910390f35b61025560048036038101906102509190611d6b565b610ed8565b6040516102629190611dab565b60405180910390f35b61028560048036038101906102809190611dc6565b610f09565b60405161029291906119e2565b60405180910390f35b6102b560048036038101906102b0919061161c565b610f38565b005b6102d160048036038101906102cc919061161c565b611404565b6040516102e2959493929190611e06565b60405180910390f35b6102f361157a565b6040516103009190611dab565b60405180910390f35b610311611587565b60405161031e9190611dab565b60405180910390f35b6004818154811061033757600080fd5b90600052602060002090600702016000915090508060000154908060010160009054906101000a900473ffffffffffffffffffffffffffffffffffffffff169080600201805461038690611e96565b80601f01602080910402602001604051908101604052809291908181526020018280546103b290611e96565b80156103ff5780601f106103d4576101008083540402835291602001916103ff565b820191906000526020600020905b8154815290600101906020018083116103e257829003601f168201915b50505050509080600301805461041490611e96565b80601f016020809104026020016040519081016040528092919081815260200182805461044090611e96565b801561048d5780601f106104625761010080835404028352916020019161048d565b820191906000526020600020905b81548152906001019060200180831161047057829003601f168201915b5050505050908060040154908060050160009054906101000a900460ff16908060060154905087565b600081815481106104c657600080fd5b906000526020600020016000915054906101000a900473ffffffffffffffffffffffffffffffffffffffff1681565b600160003373ffffffffffffffffffffffffffffffffffffffff1673ffffffffffffffffffffffffffffffffffffffff16815260200190815260200160002060009054906101000a900460ff16610581576040517f08c379a000000000000000000000000000000000000000000000000000000000815260040161057890611f13565b60405180910390fd5b8060048054905081106105c9576040517f08c379a00000000000000000000000000000000000000000000000000000000081526004016105c090611f7f565b60405180910390fd5b81600481815481106105de576105dd611f9f565b5b906000526020600020906007020160050160009054906101000a900460ff161561063d576040517f08c379a00000000000000000000000000000000000000000000000000000000081526004016106349061201a565b60405180910390fd5b826005600082815260200190815260200160002060003373ffffffffffffffffffffffffffffffffffffffff1673ffffffffffffffffffffffffffffffffffffffff16815260200190815260200160002060009054906101000a900460ff16156106dc576040517f08c379a00000000000000000000000000000000000000000000000000000000081526004016106d390612086565b60405180910390fd5b6000600485815481106106f2576106f1611f9f565b5b90600052602060002090600702019050600181600401600082825461071791906120d5565b9250508190555060016005600087815260200190815260200160002060003373ffffffffffffffffffffffffffffffffffffffff1673ffffffffffffffffffffffffffffffffffffffff16815260200190815260200160002060006101000a81548160ff0219169083151502179055503373ffffffffffffffffffffffffffffffffffffffff16857ffde7b8a92c767d46da889d2526f0fa0dd074cc73fb01212122ad9368d18390a460405160405180910390a36002548160040154106107e2576107e185610f38565b5b5050505050565b600160003373ffffffffffffffffffffffffffffffffffffffff1673ffffffffffffffffffffffffffffffffffffffff16815260200190815260200160002060009054906101000a900460ff16610875576040517f08c379a000000000000000000000000000000000000000000000000000000000815260040161086c90611f13565b60405180910390fd5b6000600480549050905060046040518060e001604052808381526020013373ffffffffffffffffffffffffffffffffffffffff168152602001858152602001848152602001600081526020016000151581526020014281525090806001815401808255809150506001900390600052602060002090600702016000909190919091506000820151816000015560208201518160010160006101000a81548173ffffffffffffffffffffffffffffffffffffffff021916908373ffffffffffffffffffffffffffffffffffffffff160217905550604082015181600201908161095d91906122b5565b50606082015181600301908161097391906122b5565b506080820151816004015560a08201518160050160006101000a81548160ff02191690831515021790555060c0820151816006015550503373ffffffffffffffffffffffffffffffffffffffff16817fba63161e1c7e096aaf63cb63b137eeea26b870df0007c6e2ad029bae55d65179856040516109f19190612387565b60405180910390a3505050565b60016020528060005260406000206000915054906101000a900460ff1681565b610a2661158d565b6003805490508210610a6d576040517f08c379a0000000000000000000000000000000000000000000000000000000008152600401610a64906123f5565b60405180910390fd5b60038281548110610a8157610a80611f9f565b5b90600052602060002090600502016040518060a0016040529081600082015481526020016001820160009054906101000a900473ffffffffffffffffffffffffffffffffffffffff1673ffffffffffffffffffffffffffffffffffffffff1673ffffffffffffffffffffffffffffffffffffffff168152602001600282018054610b0a90611e96565b80601f0160208091040260200160405190810160405280929190818152602001828054610b3690611e96565b8015610b835780601f10610b5857610100808354040283529160200191610b83565b820191906000526020600020905b815481529060010190602001808311610b6657829003601f168201915b50505050508152602001600382018054610b9c90611e96565b80601f0160208091040260200160405190810160405280929190818152602001828054610bc890611e96565b8015610c155780601f10610bea57610100808354040283529160200191610c15565b820191906000526020600020905b815481529060010190602001808311610bf857829003601f168201915b505050505081526020016004820154815250509050919050565b60606004805480602002602001604051908101604052809291908181526020016000905b82821015610e3857838290600052602060002090600702016040518060e0016040529081600082015481526020016001820160009054906101000a900473ffffffffffffffffffffffffffffffffffffffff1673ffffffffffffffffffffffffffffffffffffffff1673ffffffffffffffffffffffffffffffffffffffff168152602001600282018054610ce690611e96565b80601f0160208091040260200160405190810160405280929190818152602001828054610d1290611e96565b8015610d5f5780601f10610d3457610100808354040283529160200191610d5f565b820191906000526020600020905b815481529060010190602001808311610d4257829003601f168201915b50505050508152602001600382018054610d7890611e96565b80601f0160208091040260200160405190810160405280929190818152602001828054610da490611e96565b8015610df15780601f10610dc657610100808354040283529160200191610df1565b820191906000526020600020905b815481529060010190602001808311610dd457829003601f168201915b50505050508152602001600482015481526020016005820160009054906101000a900460ff1615151515815260200160068201548152505081526020019060010190610c53565b50505050905090565b6060600660008373ffffffffffffffffffffffffffffffffffffffff1673ffffffffffffffffffffffffffffffffffffffff168152602001908152602001600020805480602002602001604051908101604052809291908181526020018280548015610ecc57602002820191906000526020600020905b815481526020019060010190808311610eb8575b50505050509050919050565b60066020528160005260406000208181548110610ef457600080fd5b90600052602060002001600091509150505481565b60056020528160005260406000206020528060005260406000206000915091509054906101000a900460ff1681565b806004805490508110610f80576040517f08c379a0000000000000000000000000000000000000000000000000000000008152600401610f7790611f7f565b60405180910390fd5b8160048181548110610f9557610f94611f9f565b5b906000526020600020906007020160050160009054906101000a900460ff1615610ff4576040517f08c379a0000000000000000000000000000000000000000000000000000000008152600401610feb9061201a565b60405180910390fd5b60006004848154811061100a57611009611f9f565b5b9060005260206000209060070201905060025481600401541015611063576040517f08c379a000000000000000000000000000000000000000000000000000000000815260040161105a90612461565b60405180910390fd5b60018160050160006101000a81548160ff0219169083151502179055506000600380549050905060036040518060a001604052808381526020018460010160009054906101000a900473ffffffffffffffffffffffffffffffffffffffff1673ffffffffffffffffffffffffffffffffffffffff1681526020018460020180546110ec90611e96565b80601f016020809104026020016040519081016040528092919081815260200182805461111890611e96565b80156111655780601f1061113a57610100808354040283529160200191611165565b820191906000526020600020905b81548152906001019060200180831161114857829003601f168201915b5050505050815260200184600301805461117e90611e96565b80601f01602080910402602001604051908101604052809291908181526020018280546111aa90611e96565b80156111f75780601f106111cc576101008083540402835291602001916111f7565b820191906000526020600020905b8154815290600101906020018083116111da57829003601f168201915b505050505081526020014281525090806001815401808255809150506001900390600052602060002090600502016000909190919091506000820151816000015560208201518160010160006101000a81548173ffffffffffffffffffffffffffffffffffffffff021916908373ffffffffffffffffffffffffffffffffffffffff160217905550604082015181600201908161129491906122b5565b5060608201518160030190816112aa91906122b5565b50608082015181600401555050600660008360010160009054906101000a900473ffffffffffffffffffffffffffffffffffffffff1673ffffffffffffffffffffffffffffffffffffffff1673ffffffffffffffffffffffffffffffffffffffff1681526020019081526020016000208190806001815401808255809150506001900390600052602060002001600090919091909150553373ffffffffffffffffffffffffffffffffffffffff16857f9c85b616f29fca57a17eafe71cf9ff82ffef41766e2cf01ea7f8f7878dd3ec2460405160405180910390a38160010160009054906101000a900473ffffffffffffffffffffffffffffffffffffffff1673ffffffffffffffffffffffffffffffffffffffff16817fd22678d020b0e477324136d7f30db58b29803d020fbb6fa912e28a0a513900bc84600201426040516113f5929190612505565b60405180910390a35050505050565b6003818154811061141457600080fd5b90600052602060002090600502016000915090508060000154908060010160009054906101000a900473ffffffffffffffffffffffffffffffffffffffff169080600201805461146390611e96565b80601f016020809104026020016040519081016040528092919081815260200182805461148f90611e96565b80156114dc5780601f106114b1576101008083540402835291602001916114dc565b820191906000526020600020905b8154815290600101906020018083116114bf57829003601f168201915b5050505050908060030180546114f190611e96565b80601f016020809104026020016040519081016040528092919081815260200182805461151d90611e96565b801561156a5780601f1061153f5761010080835404028352916020019161156a565b820191906000526020600020905b81548152906001019060200180831161154d57829003601f168201915b5050505050908060040154905085565b6000600380549050905090565b60025481565b6040518060a0016040528060008152602001600073ffffffffffffffffffffffffffffffffffffffff1681526020016060815260200160608152602001600081525090565b6000604051905090565b600080fd5b600080fd5b6000819050919050565b6115f9816115e6565b811461160457600080fd5b50565b600081359050611616816115f0565b92915050565b600060208284031215611632576116316115dc565b5b600061164084828501611607565b91505092915050565b611652816115e6565b82525050565b600073ffffffffffffffffffffffffffffffffffffffff82169050919050565b600061168382611658565b9050919050565b61169381611678565b82525050565b600081519050919050565b600082825260208201905092915050565b60005b838110156116d35780820151818401526020810190506116b8565b60008484015250505050565b6000601f19601f8301169050919050565b60006116fb82611699565b61170581856116a4565b93506117158185602086016116b5565b61171e816116df565b840191505092915050565b60008115159050919050565b61173e81611729565b82525050565b600060e082019050611759600083018a611649565b611766602083018961168a565b818103604083015261177881886116f0565b9050818103606083015261178c81876116f0565b905061179b6080830186611649565b6117a860a0830185611735565b6117b560c0830184611649565b98975050505050505050565b60006020820190506117d6600083018461168a565b92915050565b600080fd5b600080fd5b7f4e487b7100000000000000000000000000000000000000000000000000000000600052604160045260246000fd5b61181e826116df565b810181811067ffffffffffffffff8211171561183d5761183c6117e6565b5b80604052505050565b60006118506115d2565b905061185c8282611815565b919050565b600067ffffffffffffffff82111561187c5761187b6117e6565b5b611885826116df565b9050602081019050919050565b82818337600083830152505050565b60006118b46118af84611861565b611846565b9050828152602081018484840111156118d0576118cf6117e1565b5b6118db848285611892565b509392505050565b600082601f8301126118f8576118f76117dc565b5b81356119088482602086016118a1565b91505092915050565b60008060408385031215611928576119276115dc565b5b600083013567ffffffffffffffff811115611946576119456115e1565b5b611952858286016118e3565b925050602083013567ffffffffffffffff811115611973576119726115e1565b5b61197f858286016118e3565b9150509250929050565b61199281611678565b811461199d57600080fd5b50565b6000813590506119af81611989565b92915050565b6000602082840312156119cb576119ca6115dc565b5b60006119d9848285016119a0565b91505092915050565b60006020820190506119f76000830184611735565b92915050565b611a06816115e6565b82525050565b611a1581611678565b82525050565b600082825260208201905092915050565b6000611a3782611699565b611a418185611a1b565b9350611a518185602086016116b5565b611a5a816116df565b840191505092915050565b600060a083016000830151611a7d60008601826119fd565b506020830151611a906020860182611a0c565b5060408301518482036040860152611aa88282611a2c565b91505060608301518482036060860152611ac28282611a2c565b9150506080830151611ad760808601826119fd565b508091505092915050565b60006020820190508181036000830152611afc8184611a65565b905092915050565b600081519050919050565b600082825260208201905092915050565b6000819050602082019050919050565b611b3981611729565b82525050565b600060e083016000830151611b5760008601826119fd565b506020830151611b6a6020860182611a0c565b5060408301518482036040860152611b828282611a2c565b91505060608301518482036060860152611b9c8282611a2c565b9150506080830151611bb160808601826119fd565b5060a0830151611bc460a0860182611b30565b5060c0830151611bd760c08601826119fd565b508091505092915050565b6000611bee8383611b3f565b905092915050565b6000602082019050919050565b6000611c0e82611b04565b611c188185611b0f565b935083602082028501611c2a85611b20565b8060005b85811015611c665784840389528151611c478582611be2565b9450611c5283611bf6565b925060208a01995050600181019050611c2e565b50829750879550505050505092915050565b60006020820190508181036000830152611c928184611c03565b905092915050565b600081519050919050565b600082825260208201905092915050565b6000819050602082019050919050565b6000611cd283836119fd565b60208301905092915050565b6000602082019050919050565b6000611cf682611c9a565b611d008185611ca5565b9350611d0b83611cb6565b8060005b83811015611d3c578151611d238882611cc6565b9750611d2e83611cde565b925050600181019050611d0f565b5085935050505092915050565b60006020820190508181036000830152611d638184611ceb565b905092915050565b60008060408385031215611d8257611d816115dc565b5b6000611d90858286016119a0565b9250506020611da185828601611607565b9150509250929050565b6000602082019050611dc06000830184611649565b92915050565b60008060408385031215611ddd57611ddc6115dc565b5b6000611deb85828601611607565b9250506020611dfc858286016119a0565b9150509250929050565b600060a082019050611e1b6000830188611649565b611e28602083018761168a565b8181036040830152611e3a81866116f0565b90508181036060830152611e4e81856116f0565b9050611e5d6080830184611649565b9695505050505050565b7f4e487b7100000000000000000000000000000000000000000000000000000000600052602260045260246000fd5b60006002820490506001821680611eae57607f821691505b602082108103611ec157611ec0611e67565b5b50919050565b7f4e6f7420616e2061646d696e0000000000000000000000000000000000000000600082015250565b6000611efd600c836116a4565b9150611f0882611ec7565b602082019050919050565b60006020820190508181036000830152611f2c81611ef0565b9050919050565b7f50726f706f73616c20646f6573206e6f74206578697374000000000000000000600082015250565b6000611f696017836116a4565b9150611f7482611f33565b602082019050919050565b60006020820190508181036000830152611f9881611f5c565b9050919050565b7f4e487b7100000000000000000000000000000000000000000000000000000000600052603260045260246000fd5b7f50726f706f73616c20616c726561647920657865637574656400000000000000600082015250565b60006120046019836116a4565b915061200f82611fce565b602082019050919050565b6000602082019050818103600083015261203381611ff7565b9050919050565b7f50726f706f73616c20616c726561647920636f6e6669726d6564000000000000600082015250565b6000612070601a836116a4565b915061207b8261203a565b602082019050919050565b6000602082019050818103600083015261209f81612063565b9050919050565b7f4e487b7100000000000000000000000000000000000000000000000000000000600052601160045260246000fd5b60006120e0826115e6565b91506120eb836115e6565b9250828201905080821115612103576121026120a6565b5b92915050565b60008190508160005260206000209050919050565b60006020601f8301049050919050565b600082821b905092915050565b60006008830261216b7fffffffffffffffffffffffffffffffffffffffffffffffffffffffffffffffff8261212e565b612175868361212e565b95508019841693508086168417925050509392505050565b6000819050919050565b60006121b26121ad6121a8846115e6565b61218d565b6115e6565b9050919050565b6000819050919050565b6121cc83612197565b6121e06121d8826121b9565b84845461213b565b825550505050565b600090565b6121f56121e8565b6122008184846121c3565b505050565b5b81811015612224576122196000826121ed565b600181019050612206565b5050565b601f8211156122695761223a81612109565b6122438461211e565b81016020851015612252578190505b61226661225e8561211e565b830182612205565b50505b505050565b600082821c905092915050565b600061228c6000198460080261226e565b1980831691505092915050565b60006122a5838361227b565b9150826002028217905092915050565b6122be82611699565b67ffffffffffffffff8111156122d7576122d66117e6565b5b6122e18254611e96565b6122ec828285612228565b600060209050601f83116001811461231f576000841561230d578287015190505b6123178582612299565b86555061237f565b601f19841661232d86612109565b60005b8281101561235557848901518255600182019150602085019450602081019050612330565b86831015612372578489015161236e601f89168261227b565b8355505b6001600288020188555050505b505050505050565b600060208201905081810360008301526123a181846116f0565b905092915050565b7f4e6f7469636520646f6573206e6f742065786973740000000000000000000000600082015250565b60006123df6015836116a4565b91506123ea826123a9565b602082019050919050565b6000602082019050818103600083015261240e816123d2565b9050919050565b7f4e6f7420656e6f75676820636f6e6669726d6174696f6e730000000000000000600082015250565b600061244b6018836116a4565b915061245682612415565b602082019050919050565b6000602082019050818103600083015261247a8161243e565b9050919050565b6000815461248e81611e96565b61249881866116a4565b945060018216600081146124b357600181146124c9576124fc565b60ff1983168652811515602002860193506124fc565b6124d285612109565b60005b838110156124f4578154818901526001820191506020810190506124d5565b808801955050505b50505092915050565b6000604082019050818103600083015261251f8185612481565b905061252e6020830184611649565b939250505056fea2646970667358221220631c3c02748c3471f8651ddbe5a5924f4cacd22bfd9203b0932d11ee37bcfe2964736f6c63430008130033",
  "linkReferences": {},
  "deployedLinkReferences": {}
}